{
  "abi": [
    {
      "inputs": [],
      "stateMutability": "nonpayable",
      "type": "constructor"
    },
    {
      "anonymous": false,
      "inputs": [
        {
          "indexed": false,
          "internalType": "uint256",
          "name": "_productId",
          "type": "uint256"
        },
        {
          "indexed": false,
          "internalType": "address",
          "name": "_winner",
          "type": "address"
        }
      ],
      "name": "winnerDeclared",
      "type": "event"
    },
    {
      "inputs": [
        {
          "internalType": "uint256",
          "name": "_productId",
          "type": "uint256"
        }
      ],
      "name": "closeBid",
      "outputs": [],
      "stateMutability": "payable",
      "type": "function"
    },
    {
      "inputs": [
        {
          "internalType": "string",
          "name": "_name",
          "type": "string"
        },
        {
          "internalType": "string",
          "name": "_description",
          "type": "string"
        },
        {
          "internalType": "uint256",
          "name": "_quantity",
          "type": "uint256"
        }
      ],
      "name": "createProduct",
      "outputs": [
        {
          "internalType": "uint256",
          "name": "",
          "type": "uint256"
        }
      ],
      "stateMutability": "nonpayable",
      "type": "function"
    },
    {
      "inputs": [
        {
          "internalType": "uint256",
          "name": "_productId",
          "type": "uint256"
        }
      ],
      "name": "placeBid",
      "outputs": [],
      "stateMutability": "payable",
      "type": "function"
    },
    {
      "inputs": [
        {
          "internalType": "uint256",
          "name": "",
          "type": "uint256"
        }
      ],
      "name": "productIdToAvailability",
      "outputs": [
        {
          "internalType": "bool",
          "name": "",
          "type": "bool"
        }
      ],
      "stateMutability": "view",
      "type": "function"
    },
    {
      "inputs": [
        {
          "internalType": "uint256",
          "name": "",
          "type": "uint256"
        }
      ],
      "name": "productIdToDescription",
      "outputs": [
        {
          "internalType": "string",
          "name": "",
          "type": "string"
        }
      ],
      "stateMutability": "view",
      "type": "function"
    },
    {
      "inputs": [
        {
          "internalType": "uint256",
          "name": "",
          "type": "uint256"
        }
      ],
      "name": "productIdToFloorPrice",
      "outputs": [
        {
          "internalType": "uint256",
          "name": "",
          "type": "uint256"
        }
      ],
      "stateMutability": "view",
      "type": "function"
    },
    {
      "inputs": [
        {
          "internalType": "uint256",
          "name": "",
          "type": "uint256"
        }
      ],
      "name": "productIdToLaunchTime",
      "outputs": [
        {
          "internalType": "uint256",
          "name": "",
          "type": "uint256"
        }
      ],
      "stateMutability": "view",
      "type": "function"
    },
    {
      "inputs": [
        {
          "internalType": "uint256",
          "name": "",
          "type": "uint256"
        }
      ],
      "name": "productIdToName",
      "outputs": [
        {
          "internalType": "string",
          "name": "",
          "type": "string"
        }
      ],
      "stateMutability": "view",
      "type": "function"
    },
    {
      "inputs": [
        {
          "internalType": "uint256",
          "name": "",
          "type": "uint256"
        }
      ],
      "name": "productIdToOwner",
      "outputs": [
        {
          "internalType": "address",
          "name": "",
          "type": "address"
        }
      ],
      "stateMutability": "view",
      "type": "function"
    },
    {
      "inputs": [
        {
          "internalType": "uint256",
          "name": "",
          "type": "uint256"
        }
      ],
      "name": "productIdToQuantity",
      "outputs": [
        {
          "internalType": "uint256",
          "name": "",
          "type": "uint256"
        }
      ],
      "stateMutability": "view",
      "type": "function"
    },
    {
      "inputs": [],
      "name": "productNumber",
      "outputs": [
        {
          "internalType": "uint256",
          "name": "",
          "type": "uint256"
        }
      ],
      "stateMutability": "view",
      "type": "function"
    },
    {
      "inputs": [
        {
          "internalType": "uint256",
          "name": "_productId",
          "type": "uint256"
        },
        {
          "internalType": "uint256",
          "name": "_floorPrice",
          "type": "uint256"
        },
        {
          "internalType": "uint256",
          "name": "_launchtime",
          "type": "uint256"
        }
      ],
      "name": "putUpForSale",
      "outputs": [],
      "stateMutability": "nonpayable",
      "type": "function"
    }
  ],
  "bytecode": "608060405234801561001057600080fd5b506000808055600955610b80806100286000396000f3fe6080604052600436106100a75760003560e01c8063a142220911610064578063a1422209146101b2578063b3302c02146101d2578063c3d10014146101f2578063f4aed6ef1461021f578063f6a898101461025f578063fcfe80761461027257600080fd5b806328b5ad4b146100ac5780632ea4a858146100ff5780635034735d1461013a5780638a3292b1146101505780639979ef45146101725780639ac6ed1f14610185575b600080fd5b3480156100b857600080fd5b506100e26100c73660046108a8565b6004602052600090815260409020546001600160a01b031681565b6040516001600160a01b0390911681526020015b60405180910390f35b34801561010b57600080fd5b5061012c61011a3660046108a8565b60086020526000908152604090205481565b6040519081526020016100f6565b34801561014657600080fd5b5061012c60005481565b34801561015c57600080fd5b5061017061016b3660046108c1565b61029f565b005b6101706101803660046108a8565b61030e565b34801561019157600080fd5b506101a56101a03660046108a8565b61046d565b6040516100f691906108ed565b3480156101be57600080fd5b5061012c6101cd3660046109e5565b610507565b3480156101de57600080fd5b506101a56101ed3660046108a8565b6105c2565b3480156101fe57600080fd5b5061012c61020d3660046108a8565b60036020526000908152604090205481565b34801561022b57600080fd5b5061024f61023a3660046108a8565b60056020526000908152604090205460ff1681565b60405190151581526020016100f6565b61017061026d3660046108a8565b6105db565b34801561027e57600080fd5b5061012c61028d3660046108a8565b60066020526000908152604090205481565b6000838152600460205260409020546001600160a01b031633146102de5760405162461bcd60e51b81526004016102d590610a52565b60405180910390fd5b6000928352600560209081526040808520805460ff19166001179055600682528085209390935560089052912055565b60008181526005602052604090205460ff161515600114801561033e575060008181526008602052604090205442105b801561035857506000818152600660205260409020543410155b6103ca5760405162461bcd60e51b815260206004820152603960248201527f5265717565737465642070726f64756374206973206e6f742074616b696e672060448201527f62696473206f722062696420707269636520746f6f206c6f770000000000000060648201526084016102d5565b6009546103d8906001610aaf565b60098181556000918252600a60209081526040808420859055600b8054600181019091557f0175b7a638427703f0dbe7bb9bbf987a2551717b34e79f33b5b1008d1fa01db90180546001600160a01b0319163317905591548352600c8082528284203490819055858552600783528385205485529152912054101561046a576009546000828152600760205260409020555b50565b6002602052600090815260409020805461048690610ac7565b80601f01602080910402602001604051908101604052809291908181526020018280546104b290610ac7565b80156104ff5780601f106104d4576101008083540402835291602001916104ff565b820191906000526020600020905b8154815290600101906020018083116104e257829003601f168201915b505050505081565b60008054610516906001610aaf565b600081815590815260016020908152604090912085516105389287019061080f565b5060008054815260026020908152604090912084516105599286019061080f565b505060008054815260036020908152604080832084905582548352600682528083208390558254835260058252808320805460ff19169055825483526004825280832080546001600160a01b031916331790558254835260079091528120819055549392505050565b6001602052600090815260409020805461048690610ac7565b6000818152600460205260409020546001600160a01b03163314801561061b57506000818152600760209081526040808320548352600c90915290205415155b8015610634575060008181526008602052604090205442115b6106505760405162461bcd60e51b81526004016102d590610a52565b60008181526007602052604081205490600b61066d600184610b02565b8154811061067d5761067d610b19565b60009182526020918290200154604080518681526001600160a01b039092169282018390529192507f973f33de850171ef71730e5289657abafc3d4a1ba7971acfee9014227f8c9404910160405180910390a1600083815260066020908152604080832083905560058252808320805460ff191690556004825280832080546001600160a01b0319166001600160a01b038616179055600790915281205560015b6009548111610809576000818152600a60205260409020548414801561077e57506001600160a01b038216600b610756600184610b02565b8154811061076657610766610b19565b6000918252602090912001546001600160a01b031614155b156107f7576000600b610792600184610b02565b815481106107a2576107a2610b19565b6000918252602080832090910154848352600c90915260408083205490516001600160a01b039092169350839281156108fc029290818181858888f193505050501580156107f4573d6000803e3d6000fd5b50505b8061080181610b2f565b91505061071e565b50505050565b82805461081b90610ac7565b90600052602060002090601f01602090048101928261083d5760008555610883565b82601f1061085657805160ff1916838001178555610883565b82800160010185558215610883579182015b82811115610883578251825591602001919060010190610868565b5061088f929150610893565b5090565b5b8082111561088f5760008155600101610894565b6000602082840312156108ba57600080fd5b5035919050565b6000806000606084860312156108d657600080fd5b505081359360208301359350604090920135919050565b600060208083528351808285015260005b8181101561091a578581018301518582016040015282016108fe565b8181111561092c576000604083870101525b50601f01601f1916929092016040019392505050565b634e487b7160e01b600052604160045260246000fd5b600082601f83011261096957600080fd5b813567ffffffffffffffff8082111561098457610984610942565b604051601f8301601f19908116603f011681019082821181831017156109ac576109ac610942565b816040528381528660208588010111156109c557600080fd5b836020870160208301376000602085830101528094505050505092915050565b6000806000606084860312156109fa57600080fd5b833567ffffffffffffffff80821115610a1257600080fd5b610a1e87838801610958565b94506020860135915080821115610a3457600080fd5b50610a4186828701610958565b925050604084013590509250925092565b60208082526027908201527f43616c6c6572206973206e6f7420746865206f776e6572206f662074686973206040820152661c1c9bd91d58dd60ca1b606082015260800190565b634e487b7160e01b600052601160045260246000fd5b60008219821115610ac257610ac2610a99565b500190565b600181811c90821680610adb57607f821691505b60208210811415610afc57634e487b7160e01b600052602260045260246000fd5b50919050565b600082821015610b1457610b14610a99565b500390565b634e487b7160e01b600052603260045260246000fd5b6000600019821415610b4357610b43610a99565b506001019056fea2646970667358221220ca9b9bbfdcaf7b842969a8163a89d6dfe18ffc36e9c8065ca1f60ff346f5997e64736f6c634300080a0033",
  "bytecodeSha1": "922db3a03fd8cf5f8d19a237ac17af5b0cd4ef32",
  "compiler": {
    "evm_version": "istanbul",
    "optimizer": {
      "enabled": true,
      "runs": 200
    },
    "version": "0.8.10+commit.fc410830"
  },
  "contractName": "MarketPlace",
  "language": "Solidity",
  "natspec": {
    "kind": "dev",
    "methods": {},
    "version": 1
  },
  "opcodes": "PUSH1 0x80 PUSH1 0x40 MSTORE PUSH1 0x4 CALLDATASIZE LT PUSH2 0xA7 JUMPI PUSH1 0x0 CALLDATALOAD PUSH1 0xE0 SHR DUP1 PUSH4 0xA1422209 GT PUSH2 0x64 JUMPI DUP1 PUSH4 0xA1422209 EQ PUSH2 0x1B2 JUMPI DUP1 PUSH4 0xB3302C02 EQ PUSH2 0x1D2 JUMPI DUP1 PUSH4 0xC3D10014 EQ PUSH2 0x1F2 JUMPI DUP1 PUSH4 0xF4AED6EF EQ PUSH2 0x21F JUMPI DUP1 PUSH4 0xF6A89810 EQ PUSH2 0x25F JUMPI DUP1 PUSH4 0xFCFE8076 EQ PUSH2 0x272 JUMPI PUSH1 0x0 DUP1 REVERT JUMPDEST DUP1 PUSH4 0x28B5AD4B EQ PUSH2 0xAC JUMPI DUP1 PUSH4 0x2EA4A858 EQ PUSH2 0xFF JUMPI DUP1 PUSH4 0x5034735D EQ PUSH2 0x13A JUMPI DUP1 PUSH4 0x8A3292B1 EQ PUSH2 0x150 JUMPI DUP1 PUSH4 0x9979EF45 EQ PUSH2 0x172 JUMPI DUP1 PUSH4 0x9AC6ED1F EQ PUSH2 0x185 JUMPI JUMPDEST PUSH1 0x0 DUP1 REVERT JUMPDEST CALLVALUE DUP1 ISZERO PUSH2 0xB8 JUMPI PUSH1 0x0 DUP1 REVERT JUMPDEST POP PUSH2 0xE2 PUSH2 0xC7 CALLDATASIZE PUSH1 0x4 PUSH2 0x8A8 JUMP JUMPDEST PUSH1 0x4 PUSH1 0x20 MSTORE PUSH1 0x0 SWAP1 DUP2 MSTORE PUSH1 0x40 SWAP1 KECCAK256 SLOAD PUSH1 0x1 PUSH1 0x1 PUSH1 0xA0 SHL SUB AND DUP2 JUMP JUMPDEST PUSH1 0x40 MLOAD PUSH1 0x1 PUSH1 0x1 PUSH1 0xA0 SHL SUB SWAP1 SWAP2 AND DUP2 MSTORE PUSH1 0x20 ADD JUMPDEST PUSH1 0x40 MLOAD DUP1 SWAP2 SUB SWAP1 RETURN JUMPDEST CALLVALUE DUP1 ISZERO PUSH2 0x10B JUMPI PUSH1 0x0 DUP1 REVERT JUMPDEST POP PUSH2 0x12C PUSH2 0x11A CALLDATASIZE PUSH1 0x4 PUSH2 0x8A8 JUMP JUMPDEST PUSH1 0x8 PUSH1 0x20 MSTORE PUSH1 0x0 SWAP1 DUP2 MSTORE PUSH1 0x40 SWAP1 KECCAK256 SLOAD DUP2 JUMP JUMPDEST PUSH1 0x40 MLOAD SWAP1 DUP2 MSTORE PUSH1 0x20 ADD PUSH2 0xF6 JUMP JUMPDEST CALLVALUE DUP1 ISZERO PUSH2 0x146 JUMPI PUSH1 0x0 DUP1 REVERT JUMPDEST POP PUSH2 0x12C PUSH1 0x0 SLOAD DUP2 JUMP JUMPDEST CALLVALUE DUP1 ISZERO PUSH2 0x15C JUMPI PUSH1 0x0 DUP1 REVERT JUMPDEST POP PUSH2 0x170 PUSH2 0x16B CALLDATASIZE PUSH1 0x4 PUSH2 0x8C1 JUMP JUMPDEST PUSH2 0x29F JUMP JUMPDEST STOP JUMPDEST PUSH2 0x170 PUSH2 0x180 CALLDATASIZE PUSH1 0x4 PUSH2 0x8A8 JUMP JUMPDEST PUSH2 0x30E JUMP JUMPDEST CALLVALUE DUP1 ISZERO PUSH2 0x191 JUMPI PUSH1 0x0 DUP1 REVERT JUMPDEST POP PUSH2 0x1A5 PUSH2 0x1A0 CALLDATASIZE PUSH1 0x4 PUSH2 0x8A8 JUMP JUMPDEST PUSH2 0x46D JUMP JUMPDEST PUSH1 0x40 MLOAD PUSH2 0xF6 SWAP2 SWAP1 PUSH2 0x8ED JUMP JUMPDEST CALLVALUE DUP1 ISZERO PUSH2 0x1BE JUMPI PUSH1 0x0 DUP1 REVERT JUMPDEST POP PUSH2 0x12C PUSH2 0x1CD CALLDATASIZE PUSH1 0x4 PUSH2 0x9E5 JUMP JUMPDEST PUSH2 0x507 JUMP JUMPDEST CALLVALUE DUP1 ISZERO PUSH2 0x1DE JUMPI PUSH1 0x0 DUP1 REVERT JUMPDEST POP PUSH2 0x1A5 PUSH2 0x1ED CALLDATASIZE PUSH1 0x4 PUSH2 0x8A8 JUMP JUMPDEST PUSH2 0x5C2 JUMP JUMPDEST CALLVALUE DUP1 ISZERO PUSH2 0x1FE JUMPI PUSH1 0x0 DUP1 REVERT JUMPDEST POP PUSH2 0x12C PUSH2 0x20D CALLDATASIZE PUSH1 0x4 PUSH2 0x8A8 JUMP JUMPDEST PUSH1 0x3 PUSH1 0x20 MSTORE PUSH1 0x0 SWAP1 DUP2 MSTORE PUSH1 0x40 SWAP1 KECCAK256 SLOAD DUP2 JUMP JUMPDEST CALLVALUE DUP1 ISZERO PUSH2 0x22B JUMPI PUSH1 0x0 DUP1 REVERT JUMPDEST POP PUSH2 0x24F PUSH2 0x23A CALLDATASIZE PUSH1 0x4 PUSH2 0x8A8 JUMP JUMPDEST PUSH1 0x5 PUSH1 0x20 MSTORE PUSH1 0x0 SWAP1 DUP2 MSTORE PUSH1 0x40 SWAP1 KECCAK256 SLOAD PUSH1 0xFF AND DUP2 JUMP JUMPDEST PUSH1 0x40 MLOAD SWAP1 ISZERO ISZERO DUP2 MSTORE PUSH1 0x20 ADD PUSH2 0xF6 JUMP JUMPDEST PUSH2 0x170 PUSH2 0x26D CALLDATASIZE PUSH1 0x4 PUSH2 0x8A8 JUMP JUMPDEST PUSH2 0x5DB JUMP JUMPDEST CALLVALUE DUP1 ISZERO PUSH2 0x27E JUMPI PUSH1 0x0 DUP1 REVERT JUMPDEST POP PUSH2 0x12C PUSH2 0x28D CALLDATASIZE PUSH1 0x4 PUSH2 0x8A8 JUMP JUMPDEST PUSH1 0x6 PUSH1 0x20 MSTORE PUSH1 0x0 SWAP1 DUP2 MSTORE PUSH1 0x40 SWAP1 KECCAK256 SLOAD DUP2 JUMP JUMPDEST PUSH1 0x0 DUP4 DUP2 MSTORE PUSH1 0x4 PUSH1 0x20 MSTORE PUSH1 0x40 SWAP1 KECCAK256 SLOAD PUSH1 0x1 PUSH1 0x1 PUSH1 0xA0 SHL SUB AND CALLER EQ PUSH2 0x2DE JUMPI PUSH1 0x40 MLOAD PUSH3 0x461BCD PUSH1 0xE5 SHL DUP2 MSTORE PUSH1 0x4 ADD PUSH2 0x2D5 SWAP1 PUSH2 0xA52 JUMP JUMPDEST PUSH1 0x40 MLOAD DUP1 SWAP2 SUB SWAP1 REVERT JUMPDEST PUSH1 0x0 SWAP3 DUP4 MSTORE PUSH1 0x5 PUSH1 0x20 SWAP1 DUP2 MSTORE PUSH1 0x40 DUP1 DUP6 KECCAK256 DUP1 SLOAD PUSH1 0xFF NOT AND PUSH1 0x1 OR SWAP1 SSTORE PUSH1 0x6 DUP3 MSTORE DUP1 DUP6 KECCAK256 SWAP4 SWAP1 SWAP4 SSTORE PUSH1 0x8 SWAP1 MSTORE SWAP2 KECCAK256 SSTORE JUMP JUMPDEST PUSH1 0x0 DUP2 DUP2 MSTORE PUSH1 0x5 PUSH1 0x20 MSTORE PUSH1 0x40 SWAP1 KECCAK256 SLOAD PUSH1 0xFF AND ISZERO ISZERO PUSH1 0x1 EQ DUP1 ISZERO PUSH2 0x33E JUMPI POP PUSH1 0x0 DUP2 DUP2 MSTORE PUSH1 0x8 PUSH1 0x20 MSTORE PUSH1 0x40 SWAP1 KECCAK256 SLOAD TIMESTAMP LT JUMPDEST DUP1 ISZERO PUSH2 0x358 JUMPI POP PUSH1 0x0 DUP2 DUP2 MSTORE PUSH1 0x6 PUSH1 0x20 MSTORE PUSH1 0x40 SWAP1 KECCAK256 SLOAD CALLVALUE LT ISZERO JUMPDEST PUSH2 0x3CA JUMPI PUSH1 0x40 MLOAD PUSH3 0x461BCD PUSH1 0xE5 SHL DUP2 MSTORE PUSH1 0x20 PUSH1 0x4 DUP3 ADD MSTORE PUSH1 0x39 PUSH1 0x24 DUP3 ADD MSTORE PUSH32 0x5265717565737465642070726F64756374206973206E6F742074616B696E6720 PUSH1 0x44 DUP3 ADD MSTORE PUSH32 0x62696473206F722062696420707269636520746F6F206C6F7700000000000000 PUSH1 0x64 DUP3 ADD MSTORE PUSH1 0x84 ADD PUSH2 0x2D5 JUMP JUMPDEST PUSH1 0x9 SLOAD PUSH2 0x3D8 SWAP1 PUSH1 0x1 PUSH2 0xAAF JUMP JUMPDEST PUSH1 0x9 DUP2 DUP2 SSTORE PUSH1 0x0 SWAP2 DUP3 MSTORE PUSH1 0xA PUSH1 0x20 SWAP1 DUP2 MSTORE PUSH1 0x40 DUP1 DUP5 KECCAK256 DUP6 SWAP1 SSTORE PUSH1 0xB DUP1 SLOAD PUSH1 0x1 DUP2 ADD SWAP1 SWAP2 SSTORE PUSH32 0x175B7A638427703F0DBE7BB9BBF987A2551717B34E79F33B5B1008D1FA01DB9 ADD DUP1 SLOAD PUSH1 0x1 PUSH1 0x1 PUSH1 0xA0 SHL SUB NOT AND CALLER OR SWAP1 SSTORE SWAP2 SLOAD DUP4 MSTORE PUSH1 0xC DUP1 DUP3 MSTORE DUP3 DUP5 KECCAK256 CALLVALUE SWAP1 DUP2 SWAP1 SSTORE DUP6 DUP6 MSTORE PUSH1 0x7 DUP4 MSTORE DUP4 DUP6 KECCAK256 SLOAD DUP6 MSTORE SWAP2 MSTORE SWAP2 KECCAK256 SLOAD LT ISZERO PUSH2 0x46A JUMPI PUSH1 0x9 SLOAD PUSH1 0x0 DUP3 DUP2 MSTORE PUSH1 0x7 PUSH1 0x20 MSTORE PUSH1 0x40 SWAP1 KECCAK256 SSTORE JUMPDEST POP JUMP JUMPDEST PUSH1 0x2 PUSH1 0x20 MSTORE PUSH1 0x0 SWAP1 DUP2 MSTORE PUSH1 0x40 SWAP1 KECCAK256 DUP1 SLOAD PUSH2 0x486 SWAP1 PUSH2 0xAC7 JUMP JUMPDEST DUP1 PUSH1 0x1F ADD PUSH1 0x20 DUP1 SWAP2 DIV MUL PUSH1 0x20 ADD PUSH1 0x40 MLOAD SWAP1 DUP2 ADD PUSH1 0x40 MSTORE DUP1 SWAP3 SWAP2 SWAP1 DUP2 DUP2 MSTORE PUSH1 0x20 ADD DUP3 DUP1 SLOAD PUSH2 0x4B2 SWAP1 PUSH2 0xAC7 JUMP JUMPDEST DUP1 ISZERO PUSH2 0x4FF JUMPI DUP1 PUSH1 0x1F LT PUSH2 0x4D4 JUMPI PUSH2 0x100 DUP1 DUP4 SLOAD DIV MUL DUP4 MSTORE SWAP2 PUSH1 0x20 ADD SWAP2 PUSH2 0x4FF JUMP JUMPDEST DUP3 ADD SWAP2 SWAP1 PUSH1 0x0 MSTORE PUSH1 0x20 PUSH1 0x0 KECCAK256 SWAP1 JUMPDEST DUP2 SLOAD DUP2 MSTORE SWAP1 PUSH1 0x1 ADD SWAP1 PUSH1 0x20 ADD DUP1 DUP4 GT PUSH2 0x4E2 JUMPI DUP3 SWAP1 SUB PUSH1 0x1F AND DUP3 ADD SWAP2 JUMPDEST POP POP POP POP POP DUP2 JUMP JUMPDEST PUSH1 0x0 DUP1 SLOAD PUSH2 0x516 SWAP1 PUSH1 0x1 PUSH2 0xAAF JUMP JUMPDEST PUSH1 0x0 DUP2 DUP2 SSTORE SWAP1 DUP2 MSTORE PUSH1 0x1 PUSH1 0x20 SWAP1 DUP2 MSTORE PUSH1 0x40 SWAP1 SWAP2 KECCAK256 DUP6 MLOAD PUSH2 0x538 SWAP3 DUP8 ADD SWAP1 PUSH2 0x80F JUMP JUMPDEST POP PUSH1 0x0 DUP1 SLOAD DUP2 MSTORE PUSH1 0x2 PUSH1 0x20 SWAP1 DUP2 MSTORE PUSH1 0x40 SWAP1 SWAP2 KECCAK256 DUP5 MLOAD PUSH2 0x559 SWAP3 DUP7 ADD SWAP1 PUSH2 0x80F JUMP JUMPDEST POP POP PUSH1 0x0 DUP1 SLOAD DUP2 MSTORE PUSH1 0x3 PUSH1 0x20 SWAP1 DUP2 MSTORE PUSH1 0x40 DUP1 DUP4 KECCAK256 DUP5 SWAP1 SSTORE DUP3 SLOAD DUP4 MSTORE PUSH1 0x6 DUP3 MSTORE DUP1 DUP4 KECCAK256 DUP4 SWAP1 SSTORE DUP3 SLOAD DUP4 MSTORE PUSH1 0x5 DUP3 MSTORE DUP1 DUP4 KECCAK256 DUP1 SLOAD PUSH1 0xFF NOT AND SWAP1 SSTORE DUP3 SLOAD DUP4 MSTORE PUSH1 0x4 DUP3 MSTORE DUP1 DUP4 KECCAK256 DUP1 SLOAD PUSH1 0x1 PUSH1 0x1 PUSH1 0xA0 SHL SUB NOT AND CALLER OR SWAP1 SSTORE DUP3 SLOAD DUP4 MSTORE PUSH1 0x7 SWAP1 SWAP2 MSTORE DUP2 KECCAK256 DUP2 SWAP1 SSTORE SLOAD SWAP4 SWAP3 POP POP POP JUMP JUMPDEST PUSH1 0x1 PUSH1 0x20 MSTORE PUSH1 0x0 SWAP1 DUP2 MSTORE PUSH1 0x40 SWAP1 KECCAK256 DUP1 SLOAD PUSH2 0x486 SWAP1 PUSH2 0xAC7 JUMP JUMPDEST PUSH1 0x0 DUP2 DUP2 MSTORE PUSH1 0x4 PUSH1 0x20 MSTORE PUSH1 0x40 SWAP1 KECCAK256 SLOAD PUSH1 0x1 PUSH1 0x1 PUSH1 0xA0 SHL SUB AND CALLER EQ DUP1 ISZERO PUSH2 0x61B JUMPI POP PUSH1 0x0 DUP2 DUP2 MSTORE PUSH1 0x7 PUSH1 0x20 SWAP1 DUP2 MSTORE PUSH1 0x40 DUP1 DUP4 KECCAK256 SLOAD DUP4 MSTORE PUSH1 0xC SWAP1 SWAP2 MSTORE SWAP1 KECCAK256 SLOAD ISZERO ISZERO JUMPDEST DUP1 ISZERO PUSH2 0x634 JUMPI POP PUSH1 0x0 DUP2 DUP2 MSTORE PUSH1 0x8 PUSH1 0x20 MSTORE PUSH1 0x40 SWAP1 KECCAK256 SLOAD TIMESTAMP GT JUMPDEST PUSH2 0x650 JUMPI PUSH1 0x40 MLOAD PUSH3 0x461BCD PUSH1 0xE5 SHL DUP2 MSTORE PUSH1 0x4 ADD PUSH2 0x2D5 SWAP1 PUSH2 0xA52 JUMP JUMPDEST PUSH1 0x0 DUP2 DUP2 MSTORE PUSH1 0x7 PUSH1 0x20 MSTORE PUSH1 0x40 DUP2 KECCAK256 SLOAD SWAP1 PUSH1 0xB PUSH2 0x66D PUSH1 0x1 DUP5 PUSH2 0xB02 JUMP JUMPDEST DUP2 SLOAD DUP2 LT PUSH2 0x67D JUMPI PUSH2 0x67D PUSH2 0xB19 JUMP JUMPDEST PUSH1 0x0 SWAP2 DUP3 MSTORE PUSH1 0x20 SWAP2 DUP3 SWAP1 KECCAK256 ADD SLOAD PUSH1 0x40 DUP1 MLOAD DUP7 DUP2 MSTORE PUSH1 0x1 PUSH1 0x1 PUSH1 0xA0 SHL SUB SWAP1 SWAP3 AND SWAP3 DUP3 ADD DUP4 SWAP1 MSTORE SWAP2 SWAP3 POP PUSH32 0x973F33DE850171EF71730E5289657ABAFC3D4A1BA7971ACFEE9014227F8C9404 SWAP2 ADD PUSH1 0x40 MLOAD DUP1 SWAP2 SUB SWAP1 LOG1 PUSH1 0x0 DUP4 DUP2 MSTORE PUSH1 0x6 PUSH1 0x20 SWAP1 DUP2 MSTORE PUSH1 0x40 DUP1 DUP4 KECCAK256 DUP4 SWAP1 SSTORE PUSH1 0x5 DUP3 MSTORE DUP1 DUP4 KECCAK256 DUP1 SLOAD PUSH1 0xFF NOT AND SWAP1 SSTORE PUSH1 0x4 DUP3 MSTORE DUP1 DUP4 KECCAK256 DUP1 SLOAD PUSH1 0x1 PUSH1 0x1 PUSH1 0xA0 SHL SUB NOT AND PUSH1 0x1 PUSH1 0x1 PUSH1 0xA0 SHL SUB DUP7 AND OR SWAP1 SSTORE PUSH1 0x7 SWAP1 SWAP2 MSTORE DUP2 KECCAK256 SSTORE PUSH1 0x1 JUMPDEST PUSH1 0x9 SLOAD DUP2 GT PUSH2 0x809 JUMPI PUSH1 0x0 DUP2 DUP2 MSTORE PUSH1 0xA PUSH1 0x20 MSTORE PUSH1 0x40 SWAP1 KECCAK256 SLOAD DUP5 EQ DUP1 ISZERO PUSH2 0x77E JUMPI POP PUSH1 0x1 PUSH1 0x1 PUSH1 0xA0 SHL SUB DUP3 AND PUSH1 0xB PUSH2 0x756 PUSH1 0x1 DUP5 PUSH2 0xB02 JUMP JUMPDEST DUP2 SLOAD DUP2 LT PUSH2 0x766 JUMPI PUSH2 0x766 PUSH2 0xB19 JUMP JUMPDEST PUSH1 0x0 SWAP2 DUP3 MSTORE PUSH1 0x20 SWAP1 SWAP2 KECCAK256 ADD SLOAD PUSH1 0x1 PUSH1 0x1 PUSH1 0xA0 SHL SUB AND EQ ISZERO JUMPDEST ISZERO PUSH2 0x7F7 JUMPI PUSH1 0x0 PUSH1 0xB PUSH2 0x792 PUSH1 0x1 DUP5 PUSH2 0xB02 JUMP JUMPDEST DUP2 SLOAD DUP2 LT PUSH2 0x7A2 JUMPI PUSH2 0x7A2 PUSH2 0xB19 JUMP JUMPDEST PUSH1 0x0 SWAP2 DUP3 MSTORE PUSH1 0x20 DUP1 DUP4 KECCAK256 SWAP1 SWAP2 ADD SLOAD DUP5 DUP4 MSTORE PUSH1 0xC SWAP1 SWAP2 MSTORE PUSH1 0x40 DUP1 DUP4 KECCAK256 SLOAD SWAP1 MLOAD PUSH1 0x1 PUSH1 0x1 PUSH1 0xA0 SHL SUB SWAP1 SWAP3 AND SWAP4 POP DUP4 SWAP3 DUP2 ISZERO PUSH2 0x8FC MUL SWAP3 SWAP1 DUP2 DUP2 DUP2 DUP6 DUP9 DUP9 CALL SWAP4 POP POP POP POP ISZERO DUP1 ISZERO PUSH2 0x7F4 JUMPI RETURNDATASIZE PUSH1 0x0 DUP1 RETURNDATACOPY RETURNDATASIZE PUSH1 0x0 REVERT JUMPDEST POP POP JUMPDEST DUP1 PUSH2 0x801 DUP2 PUSH2 0xB2F JUMP JUMPDEST SWAP2 POP POP PUSH2 0x71E JUMP JUMPDEST POP POP POP POP JUMP JUMPDEST DUP3 DUP1 SLOAD PUSH2 0x81B SWAP1 PUSH2 0xAC7 JUMP JUMPDEST SWAP1 PUSH1 0x0 MSTORE PUSH1 0x20 PUSH1 0x0 KECCAK256 SWAP1 PUSH1 0x1F ADD PUSH1 0x20 SWAP1 DIV DUP2 ADD SWAP3 DUP3 PUSH2 0x83D JUMPI PUSH1 0x0 DUP6 SSTORE PUSH2 0x883 JUMP JUMPDEST DUP3 PUSH1 0x1F LT PUSH2 0x856 JUMPI DUP1 MLOAD PUSH1 0xFF NOT AND DUP4 DUP1 ADD OR DUP6 SSTORE PUSH2 0x883 JUMP JUMPDEST DUP3 DUP1 ADD PUSH1 0x1 ADD DUP6 SSTORE DUP3 ISZERO PUSH2 0x883 JUMPI SWAP2 DUP3 ADD JUMPDEST DUP3 DUP2 GT ISZERO PUSH2 0x883 JUMPI DUP3 MLOAD DUP3 SSTORE SWAP2 PUSH1 0x20 ADD SWAP2 SWAP1 PUSH1 0x1 ADD SWAP1 PUSH2 0x868 JUMP JUMPDEST POP PUSH2 0x88F SWAP3 SWAP2 POP PUSH2 0x893 JUMP JUMPDEST POP SWAP1 JUMP JUMPDEST JUMPDEST DUP1 DUP3 GT ISZERO PUSH2 0x88F JUMPI PUSH1 0x0 DUP2 SSTORE PUSH1 0x1 ADD PUSH2 0x894 JUMP JUMPDEST PUSH1 0x0 PUSH1 0x20 DUP3 DUP5 SUB SLT ISZERO PUSH2 0x8BA JUMPI PUSH1 0x0 DUP1 REVERT JUMPDEST POP CALLDATALOAD SWAP2 SWAP1 POP JUMP JUMPDEST PUSH1 0x0 DUP1 PUSH1 0x0 PUSH1 0x60 DUP5 DUP7 SUB SLT ISZERO PUSH2 0x8D6 JUMPI PUSH1 0x0 DUP1 REVERT JUMPDEST POP POP DUP2 CALLDATALOAD SWAP4 PUSH1 0x20 DUP4 ADD CALLDATALOAD SWAP4 POP PUSH1 0x40 SWAP1 SWAP3 ADD CALLDATALOAD SWAP2 SWAP1 POP JUMP JUMPDEST PUSH1 0x0 PUSH1 0x20 DUP1 DUP4 MSTORE DUP4 MLOAD DUP1 DUP3 DUP6 ADD MSTORE PUSH1 0x0 JUMPDEST DUP2 DUP2 LT ISZERO PUSH2 0x91A JUMPI DUP6 DUP2 ADD DUP4 ADD MLOAD DUP6 DUP3 ADD PUSH1 0x40 ADD MSTORE DUP3 ADD PUSH2 0x8FE JUMP JUMPDEST DUP2 DUP2 GT ISZERO PUSH2 0x92C JUMPI PUSH1 0x0 PUSH1 0x40 DUP4 DUP8 ADD ADD MSTORE JUMPDEST POP PUSH1 0x1F ADD PUSH1 0x1F NOT AND SWAP3 SWAP1 SWAP3 ADD PUSH1 0x40 ADD SWAP4 SWAP3 POP POP POP JUMP JUMPDEST PUSH4 0x4E487B71 PUSH1 0xE0 SHL PUSH1 0x0 MSTORE PUSH1 0x41 PUSH1 0x4 MSTORE PUSH1 0x24 PUSH1 0x0 REVERT JUMPDEST PUSH1 0x0 DUP3 PUSH1 0x1F DUP4 ADD SLT PUSH2 0x969 JUMPI PUSH1 0x0 DUP1 REVERT JUMPDEST DUP2 CALLDATALOAD PUSH8 0xFFFFFFFFFFFFFFFF DUP1 DUP3 GT ISZERO PUSH2 0x984 JUMPI PUSH2 0x984 PUSH2 0x942 JUMP JUMPDEST PUSH1 0x40 MLOAD PUSH1 0x1F DUP4 ADD PUSH1 0x1F NOT SWAP1 DUP2 AND PUSH1 0x3F ADD AND DUP2 ADD SWAP1 DUP3 DUP3 GT DUP2 DUP4 LT OR ISZERO PUSH2 0x9AC JUMPI PUSH2 0x9AC PUSH2 0x942 JUMP JUMPDEST DUP2 PUSH1 0x40 MSTORE DUP4 DUP2 MSTORE DUP7 PUSH1 0x20 DUP6 DUP9 ADD ADD GT ISZERO PUSH2 0x9C5 JUMPI PUSH1 0x0 DUP1 REVERT JUMPDEST DUP4 PUSH1 0x20 DUP8 ADD PUSH1 0x20 DUP4 ADD CALLDATACOPY PUSH1 0x0 PUSH1 0x20 DUP6 DUP4 ADD ADD MSTORE DUP1 SWAP5 POP POP POP POP POP SWAP3 SWAP2 POP POP JUMP JUMPDEST PUSH1 0x0 DUP1 PUSH1 0x0 PUSH1 0x60 DUP5 DUP7 SUB SLT ISZERO PUSH2 0x9FA JUMPI PUSH1 0x0 DUP1 REVERT JUMPDEST DUP4 CALLDATALOAD PUSH8 0xFFFFFFFFFFFFFFFF DUP1 DUP3 GT ISZERO PUSH2 0xA12 JUMPI PUSH1 0x0 DUP1 REVERT JUMPDEST PUSH2 0xA1E DUP8 DUP4 DUP9 ADD PUSH2 0x958 JUMP JUMPDEST SWAP5 POP PUSH1 0x20 DUP7 ADD CALLDATALOAD SWAP2 POP DUP1 DUP3 GT ISZERO PUSH2 0xA34 JUMPI PUSH1 0x0 DUP1 REVERT JUMPDEST POP PUSH2 0xA41 DUP7 DUP3 DUP8 ADD PUSH2 0x958 JUMP JUMPDEST SWAP3 POP POP PUSH1 0x40 DUP5 ADD CALLDATALOAD SWAP1 POP SWAP3 POP SWAP3 POP SWAP3 JUMP JUMPDEST PUSH1 0x20 DUP1 DUP3 MSTORE PUSH1 0x27 SWAP1 DUP3 ADD MSTORE PUSH32 0x43616C6C6572206973206E6F7420746865206F776E6572206F66207468697320 PUSH1 0x40 DUP3 ADD MSTORE PUSH7 0x1C1C9BD91D58DD PUSH1 0xCA SHL PUSH1 0x60 DUP3 ADD MSTORE PUSH1 0x80 ADD SWAP1 JUMP JUMPDEST PUSH4 0x4E487B71 PUSH1 0xE0 SHL PUSH1 0x0 MSTORE PUSH1 0x11 PUSH1 0x4 MSTORE PUSH1 0x24 PUSH1 0x0 REVERT JUMPDEST PUSH1 0x0 DUP3 NOT DUP3 GT ISZERO PUSH2 0xAC2 JUMPI PUSH2 0xAC2 PUSH2 0xA99 JUMP JUMPDEST POP ADD SWAP1 JUMP JUMPDEST PUSH1 0x1 DUP2 DUP2 SHR SWAP1 DUP3 AND DUP1 PUSH2 0xADB JUMPI PUSH1 0x7F DUP3 AND SWAP2 POP JUMPDEST PUSH1 0x20 DUP3 LT DUP2 EQ ISZERO PUSH2 0xAFC JUMPI PUSH4 0x4E487B71 PUSH1 0xE0 SHL PUSH1 0x0 MSTORE PUSH1 0x22 PUSH1 0x4 MSTORE PUSH1 0x24 PUSH1 0x0 REVERT JUMPDEST POP SWAP2 SWAP1 POP JUMP JUMPDEST PUSH1 0x0 DUP3 DUP3 LT ISZERO PUSH2 0xB14 JUMPI PUSH2 0xB14 PUSH2 0xA99 JUMP JUMPDEST POP SUB SWAP1 JUMP JUMPDEST PUSH4 0x4E487B71 PUSH1 0xE0 SHL PUSH1 0x0 MSTORE PUSH1 0x32 PUSH1 0x4 MSTORE PUSH1 0x24 PUSH1 0x0 REVERT JUMPDEST PUSH1 0x0 PUSH1 0x0 NOT DUP3 EQ ISZERO PUSH2 0xB43 JUMPI PUSH2 0xB43 PUSH2 0xA99 JUMP JUMPDEST POP PUSH1 0x1 ADD SWAP1 JUMP INVALID LOG2 PUSH5 0x6970667358 0x22 SLT KECCAK256 0xCA SWAP12 SWAP12 0xBF 0xDC 0xAF PUSH28 0x842969A8163A89D6DFE18FFC36E9C8065CA1F60FF346F5997E64736F PUSH13 0x634300080A0033000000000000 ",
  "sha1": "3bd868de3de303c4606b3b04a74c1ef314373c8d",
  "source": "//SPDX-License-Identifier: MIT\n\npragma solidity ^0.8.0;\ncontract MarketPlace {\n    \n    // Product data\n    uint256 public productNumber;\n    mapping(uint256 => string) public productIdToName;\n    mapping(uint256 => string) public productIdToDescription;\n    mapping(uint256 => uint256) public productIdToQuantity;    \n    mapping(uint256 => address) public productIdToOwner;\n    mapping(uint256 => bool) public productIdToAvailability;\n    mapping(uint256 => uint256) public productIdToFloorPrice;\n    mapping(uint256 => uint256) productIdToHighestBidId;\n    mapping(uint256 => uint256) public productIdToLaunchTime;  \n    // Bid data\n    uint256 bidNumber;\n    mapping(uint256 => uint256) bidIdToProductId;\n    address payable[] bidders;\n    mapping(uint256 => uint256) bidIdToBidAmount;\n\n    event winnerDeclared(uint256 _productId, address _winner );\n\n\n    constructor () {\n        productNumber = 0;\n        bidNumber = 0;\n    }\n    function createProduct(string memory _name, string memory _description, uint256 _quantity) public returns (uint256) {\n        productNumber = productNumber + 1;\n        productIdToName[productNumber] = _name;\n        productIdToDescription[productNumber] = _description;\n        productIdToQuantity[productNumber] = _quantity;\n        productIdToFloorPrice[productNumber] = 0;\n        productIdToAvailability[productNumber] = false;        \n        productIdToOwner[productNumber] = msg.sender;\n        productIdToHighestBidId[productNumber] = 0;               \n        return productNumber;\n    }   \n\n    function putUpForSale(uint256 _productId, uint256 _floorPrice, uint256 _launchtime) public {\n        require(msg.sender == productIdToOwner[_productId], \"Caller is not the owner of this product\");\n        productIdToAvailability[_productId] = true;\n        productIdToFloorPrice[_productId] = _floorPrice;\n        productIdToLaunchTime[_productId] = _launchtime;\n    }\n\n    function placeBid(uint256 _productId) public payable{\n        require(productIdToAvailability[_productId] == true && block.timestamp < productIdToLaunchTime[_productId] && msg.value >= productIdToFloorPrice[_productId] , \"Requested product is not taking bids or bid price too low\");\n        bidNumber = bidNumber + 1;\n        bidIdToProductId[bidNumber] = _productId;\n        bidders.push(payable(msg.sender));\n        bidIdToBidAmount[bidNumber] = msg.value;\n        if (msg.value > bidIdToBidAmount[productIdToHighestBidId[_productId]]) {\n            productIdToHighestBidId[_productId] = bidNumber;\n        }\n    }\n  \n\n    function closeBid(uint256 _productId) public payable{\n        require(productIdToOwner[_productId] == msg.sender && bidIdToBidAmount[productIdToHighestBidId[_productId]] > 0 && block.timestamp > productIdToLaunchTime[_productId], \"Caller is not the owner of this product\");\n        uint256 winnerBidId = productIdToHighestBidId[_productId];\n        address winner = bidders[winnerBidId - 1];\n        emit winnerDeclared(_productId, winner);\n        productIdToFloorPrice[_productId] = 0;\n        productIdToAvailability[_productId] = false;        \n        productIdToOwner[_productId] = winner;\n        productIdToHighestBidId[_productId] = 0;\n        for (uint256 i = 1; i <= bidNumber; i++) {\n            if (bidIdToProductId[i] == _productId && bidders[i-1] != winner) {\n                address payable bidder = bidders[i - 1];\n                bidder.transfer(bidIdToBidAmount[i]);\n            }\n        }\n    }\n\n}",
  "sourcePath": "contracts/Lottery.sol",
  "type": "contract"
}